{
    "contractName": "Storage",
    "abi": [
        {
            "inputs": [],
            "name": "get",
            "outputs": [
                {
                    "internalType": "uint256",
                    "name": "",
                    "type": "uint256"
                }
            ],
            "stateMutability": "view",
            "type": "function"
        },
        {
            "inputs": [],
            "name": "store",
            "outputs": [],
            "stateMutability": "nonpayable",
            "type": "function"
        }
    ],
    "bytecode": "608080604052346013576095908160188239f35b5f80fdfe60808060405260043610156011575f80fd5b5f3560e01c9081636d4ce63c146048575063975057e714602f575f80fd5b346044575f3660031901126044576107d95f55005b5f80fd5b346044575f3660031901126044576020905f548152f3fea2646970667358221220fd17f871287ca32f79bf9b18703102747e4d0244d9f13e9644483944c98bdaa664736f6c634300081c0033",
    "sourcePath": "c:/Users/quyen/OneDrive/Documents/GitHub/vqm-blockchain-journal/Solidity Project/Beginner/Storage.sol",
    "compiler": {
        "name": "solc",
        "version": "0.8.28+commit.7893614a"
    },
    "functionHashes": {
        "get()": "6d4ce63c",
        "store()": "975057e7"
    },
    "gasEstimates": {
        "creation": {
            "codeDepositCost": "29800",
            "executionCost": "87",
            "totalCost": "29887"
        },
        "external": {
            "get()": "2247",
            "store()": "22253"
        }
    }
}