{
    "contractName": "HelloWorld",
    "abi": [
        {
            "inputs": [],
            "name": "print",
            "outputs": [
                {
                    "internalType": "string",
                    "name": "",
                    "type": "string"
                }
            ],
            "stateMutability": "pure",
            "type": "function"
        }
    ],
    "bytecode": "6080806040523460145760f690816100198239f35b5f80fdfe60806004361015600d575f80fd5b5f3560e01c6313bdfacd14601f575f80fd5b3460bc575f36600319011260bc576060810181811067ffffffffffffffff82111760a85760405260218152604060208201917f48656c6c6f20426c6f636b436861696e20576f726c642c2056514d20686572658352602160f81b828201528151928391602083525180918160208501528484015e5f828201840152601f01601f19168101030190f35b634e487b7160e01b5f52604160045260245ffd5b5f80fdfea26469706673582212208c548984e2d98450058568558d626f5ea5ab9a0177fb9900e47733337051b66364736f6c634300081c0033",
    "sourcePath": "c:/Users/quyen/OneDrive/Documents/GitHub/vqm-blockchain-journal/Solidity Project/Beginner/HelloWorld/HelloWorld.sol",
    "compiler": {
        "name": "solc",
        "version": "0.8.28+commit.7893614a"
    },
    "functionHashes": {
        "print()": "13bdfacd"
    },
    "gasEstimates": {
        "creation": {
            "codeDepositCost": "49200",
            "executionCost": "105",
            "totalCost": "49305"
        },
        "external": {
            "print()": "358"
        }
    }
}